:101116005374617274696E672E2E2E202020202053
:10112600003E3E3E3E00312E577420322E546172F0
:101136006520332E48697300342E436C7220372E97
:10114600487420382E424D49005765696768743ADD
:1011560000252E31666B6700483A002564636D00F2
:10116600424D493A252E316600496E707574204805
:10117600656967687428636D293A00256400202034
:101186002020202020202020202020202020004851
:1011960065696768742053617665642100252E3180
:1011A60066206B6700252E306620670053617665E2
:1011B6006420746F20454550524F4D00546172694A
:1011C6006E672E2E2E00446F6E65004C6173743A66
:1011D60000486973746F727920436C656172656447
:1011E60000000000000000000000000000000000F9
:0111F60000F8
:0D179F00016C00016B00C109420000000058
:10166C00E4F522F5237BFF7A117916FDFF1217F4AE
:10167C00D3E523940CE52294005021AD237BFF7A13
:10168C001179277F011217F474042523F523E4350F
:0C169C0022F5227FF47E0112193480D464
:0116A800221F
:10137D001219B21217141219687F241218CF900087
:10138D0000EEF0A3EFF012166C7FF47E01803312A5
:10139D0019B21212C98F6CEF64017008756B0112CE
:1013AD000E6580EBE56C64027008756B021216E534
:1013BD008013E56C64037012756B031215E17FD019
:1013CD007E071219341218ED80C5E56C64047005A2
:1013DD0012181C80BAE56C64077008756B07121043
:1013ED002180ACE56C64087008756B081211F780EC
:0D13FD009EE56C709A7F32FE1219348092CA
:1018ED001219747BFF7A11792CE4FDFF1217F47B2A
:0C18FD00FF7A11793EE4FD7F010217F430
:1011F7007F201216288F358E348D338C327F241240
:1012070018CF8E368F377F261216288F3B8E3A8D52
:10121700398C381219747BFF7A11794FE4FDFF126C
:1012270017F47552FF755311755457853558853422
:10123700578533568532557B007A007922120A5238
:101247007B007A0079227D07E4FF1217F47BFF7A8F
:1012570011795EE4FD7F011217F47552FF75531182
:101267007554618536558537567B007A0079221289
:101277000A527B007A0079227D027F011217F475EA
:1012870052FF755311755466853B58853A57853912
:10129700568538557B007A007922120A527B007AEC
:1012A7000079227D087F011217F41219B2AF3BAE05
:1012B7003AAD39AC3812158A7FD07E07121934023D
:0212C70018ED20
:10102100E4F532F533900000F0A3F01219747BFF60
:101031007A11796FE4FDFF1217F41212C98F6C7ED9
:1010410000C3EF9401748094804039D3EF940A7403
:05105100809480502F87
:10105600EF640A7003FF8002AF6C8F34900000E0EB
:10106600FEA3E0FFC394E8EE940350747C007D0A6F
:0D1076001206B4EF2534FFEC3EFE900000A2
:10108300801FAF6CEF640B6064EF640C70559000CD
:1010930000E0FEA3E0FF7C007D0A1206C69000007C
:1010A300EEF0A3EFF07552FF7553117554818E5511
:1010B300F5567B007A007922120A52E4FD7F011271
:1010C30019597BFF7A117984E4FD7F011217F4E447
:1010D300FD7F011219597B007A007922E4FD7F011B
:1010E3001217F47F967E0012193402103B90000011
:1010F300E0FCA3E0FD7F241219091219747BFF7A27
:10110300117995E4FDFF1217F47FE87E0312193479
:031113000218EDD2
:100E650078327C007D007BFF7A1179E77E007F1068
:100E75001206141219747BFF7A11794FE4FDFF12E3
:020E850017F460
:100E87001217438F458E448D438C42E4F549F5484C
:100E9700F547F546900000E0FCA3E0FDE4120227C9
:100EA700E4FBFA79C8784212010CC004C005C006F9
:100EB700C007900000E0FCA3E0FDE4120227E4FB7A
:100EC700FA79C8784212010CD003D002D001D000C1
:100ED700120003A804A905AA06AB07AF45AE44ADA7
:100EE70043AC4212010C8F498E488D478C4620092E
:100EF700177552FF7553117554A385455885445787
:100F070085435685425580237552FF755311755495
:100F1700ABE4FFFE7D7A7C44AB45AA44A943A842D3
:100F27001200038F588E578D568C557B007A0079A7
:100F370022120A5278227C007D007B007A007932E7
:100F47001208F0EF3395E04F603AE4FD7F01121984
:100F570059E4F54AC3E54A94107480948050097F98
:100F6700201219BE054A80EC7B007A007922E4FD45
:100F77007F011217F478327C007D007B007A0079BC
:100F8700221209D9AF49AE48AD47AC4612158A12AD
:100F970012C98F6C7E00EF607764057006B209F5A1
:090FA70032806DEF64074E7061A9
:100FB0007F201216288F4E8E4D8D4C8C4B8F538E6A
:100FC000528D518C507F101216A98545538544527D
:100FD0008543518542507F201216A9900000E0FC05
:100FE000A3E0FD7F2412190985495385485285479E
:100FF000518546507F261216A91219747BFF7A116B
:0F10000079B2E4FDFF1217F47FE87E0312193472
:0F100F0080061219B20218ED7F647E00121934A8
:03101E00020E8738
:1016E5001219747BFF7A1179C2E4FDFF1217F41207
:1016F50019687FE87E031219341219747BFF7A1179
:0F17050079CCE4FDFF1217F47FE87E030219345C
:1015E1007F101216288F358E348D338C3212197478
:1015F1007BFF7A1179D1E4FDFF1217F47552FF7563
:10160100531175545785355885345785335685326E
:10161100557B007A007922120A527B007A007922E6
:071621007D06E4FF0217F44F
:10181C00E4F553F552F551F5507F101216A9121933
:10182C00747BFF7A1179D7E4FDFF1217F47FE87E01
:07183C00031219340218ED3C
:0C17AC00041800000000041C460CA00003
:0319C300000022FF
:10151D00E4F556F555F554F553D293C2922093FD4B
:10152D00E4FBEBC39418748094805033D292AF5681
:10153D00AE55AD54AC5378011207298F568E558D8B
:10154D00548C53C292309311EF2401F556E43EF5BD
:10155D0055E43DF554E43CF5531219C30B80C3D249
:10156D0092E556F556E555F555E5546480F554E587
:0C157D0053F553C292AF56AE55AD54FC6E
:01158900223F
:0C19680012151D8F1B8E1A8D198C182271
:1017430012151D8F528E518D508C4FC3E552951B30
:10175300FFE551951AFEE5509519FDE54F9518FCE7
:0E176300120222AB1FAA1EA91DA81C02010C17
:0A1980004390037F327E0002193409
:09199400D291D290C291C29022BE
:07199D00C291D290D2912209
:10186A00E4FEEEC39408748094805014EF30E702CB
:10187A008001C39291D290C290EF25E0FF0E80E2E0
:03188A0075900155
:01188D002238
:10194900D291D29030910612199D759002C29022BF
:0719A400C291D290C2902213
:0719AB00D291D290C29022FC
:10188E00E4FFD291FEEEC39408748094805011D27E
:10189E0090EF25E0FF309103430701C2900E80E5E3
:0118AE002217
:10149600EF54F0F552EFC454F0F553ED60047F01BC
:1014A60080027F008F541219947F4E12186A121907
:1014B60049E55245544408FF12186A121949E55283
:1014C6004554440CFF12186A121949E55245544412
:1014D60008FF12186A12194912199D1219947F4EA3
:1014E60012186A121949E55345544408FF12186A3E
:1014F600121949E5534554440CFF12186A1219494A
:10150600E55345544408FF12186A12194912199DE9
:071516007F027E0002193480
:0519B900E4FD0214969C
:0519BE007D01021496FA
:0F195900EF70047F8080027FC0EF2DFF0219B96D
:0A198A008B6D121959AF6D0219BEE2
:1017F4008B4F8A508951121959AB4FAA50A95112D3
:10180400063A60130551E5517002055014F91206A9
:081814003AFF1219BE80E22226
:101714001219807F327E001219347F331219B97F77
:10172400321219B97F281219B97F0C1219B97F0620
:0F1734001219B97F011219B97F057E000219340D
:0C1974007F011219B97F057E00021934B2
:1017B80010080102030405060708090A0B0C0D0EA0
:0217C8000F1000
:1018AF00E4FDFCC3ED9FEC9E5015E4FBFA0BBB006F
:0F18BF00010AEB647B4A70F50DBD00010C80E45B
:0118CE0022F7
:1012C900E4F9E9C3940474809480400302137AD248
:1012D900A0D2A1D2A2D2A3E914600E14600F1460A7
:1012E900102403700EC2A3800AC2A28006C2A18084
:1012F90002C2A020A405E4F54F801620A505754F6C
:1013090001800E20A605754F02800620A75F754F44
:10131900037F0A7E001218AFAF4FEF700330A41B92
:10132900EF64014E700330A512EF64024E70033072
:10133900A609EF64034E703520A732AF4F7E00EF48
:10134900700330A4F6EF64014E700330A5EDEF642D
:10135900024E700330A6E4EF64034E700330A7DB3E
:10136900E925E025E02408254FF8E6FF22090212C5
:03137900CB7F0027
:01137C00224E
:1017CB008F598D5A1219947FA012186A121949AFAA
:1017DB005912186A121949AF5A12186A121949127A
:0917EB00199D7F057E00021934EE
:021771008F598E
:101773001219947FA012186A121949AF5912186AE4
:101783001219491219947FA112186A1219491218D1
:0B1793008E8F5A1219AB12199DAF5A2D
:01179E002228
:0216A9008F4F61
:1016AB00755600755700755850E4F554F555E54FD0
:1016BB002555FFAB56AA57A95885558285548312D9
:1016CB000653FD1217CB0555E55570020554C3940F
:0916DB0004E5546480948040D5BC
:0116E40022E3
:021628008F4FE2
:10162A00755600755700755852E4F550F551E54F57
:10163A002551FF121771AB56AA57A95885518285B1
:10164A005083EF1206920551E55170020550C3947A
:10165A0004E5506480948040D5AF55AE54AD53AC88
:01166A00522D
:01166B00225C
:101909008F4F8C508D51E550FD1217CBE54F04FFD9
:06191900E551FD0217CBB1
:1018CF008F3C121771EF7F00FEC007C006E53C0486
:0E18DF00FF121771EFFDD0E0FED0E04DFF22AA
:10158A008F528E518D508C4FE4FFFE7D947C41AB7F
:10159A0052AA51A950A84F1201A950028032E4FF61
:1015AA00FE7D947C41AB52AA51A950A84F1201A9C1
:1015BA00401E7F337E337DBF7C41AB52AA51A95076
:1015CA00A84F1201A960025007D2B6C2B7C2B5220B
:0715DA00D2B7C2B6C2B52270
:0719B200C2B7C2B6C2B522A4
:10191F005389F0438901758A66758CFCC28DD28C10
:05192F00D2A9D2AF2295
:10193400EF1FAC0670011E4C600A7D027CEFDCFEDA
:04194400DDFC80EC5A
:01194800227C
:10000300EC4D6011E8497017ED33EC3304600DE4F7
:10001300FCFFFEFD22E933E8330470F80202951277
:10002300026058046009E4CC248150062850090278
:10003300029F28400302029CC0E0EB4A7044B9804F
:1000430006D0E0FB02028BEF4E701CBD8008EBFF75
:10005300EAFEE9FD80EBE98DF0A4FEE5F00200EC99
:10006300E9CDF9EAFEEBFFEF89F0A4FCE5F0CE89D8
:10007300F0A42EFFE435F0CD89F0A42DFEE435F095
:100083008067EF4E7005BD80D780C3EF8BF0A4ACC3
:10009300F0EE8BF0A42CFCE435F0F8EF8AF0A42CFE
:1000A300E5F038FCE433CB8DF0A42CFCE5F03BF811
:1000B300EE8AF0A42CFCE5F038F8E433CF89F0A401
:1000C3002CFCE5F038CF3400CE89F0A42FFFE5F007
:1000D3003EFEE433C98DF0A42EFEE5F039CD8AF05F
:1000E300A42FFFE5F03EFEE43DFD33D0E0FB5007D7
:1000F3000BBB000F02029FEC2CFCEF33FFEE33FE31
:06010300ED33FD0202775E
:1001090002029FEC5D046005E85904700302029540
:10011900120260580460F6EC4860F2EC7004FDFECF
:10012900FF22C860DB2481C85009C39860025006C9
:1001390002029C9850CAF582E9294B4A7005AB82A4
:1001490002028B75F0007C1A7880C3EF9BEE9AED62
:1001590099400DC3EF9BFFEE9AFEED99FDE842F041
:10016900DC23ACF0D0E0FFD0E0FED0E0FDAB822094
:10017900E7101BEB60BAEC2CFCEF33FFEE33FEED1E
:1001890033FD020277E803F830E705C0F075F000A7
:10019900EF2FFFEE33FEED33FD40B830E7C280AA02
:1001A90074F8CC6480CCC86480C8F58204604FC3FD
:1001B900EB9FF5F0EA9E42F0E99D42F0E89C45F09C
:1001C900603C501DE5825FFFE582D313CB5BCBF426
:1001D9002B5582FB50280ABA002409B9002008804F
:1001E9001DE5825BFBE582D313CF5FCFF4C3132FE9
:1001F9005582FF50090EBE00050DBD00010CC3EB71
:100209009FF5F0EA9E42F0E99D42F0E89C45F060D6
:0902190007CC4820E701B3EC22F8
:1002220075F020800E75F010800575F0087D007E57
:10023200007F003392D530D50312071BEC334010F8
:10024200EF33FFEE33FEED33FDEC33FCD5F0ED2260
:0E025200E5F0247EA2D513CC92E7CDCEFF229C
:1009F600E5662452F8E6056622784F3007027852FB
:100A0600E475F00112073C02063A2000EB7F2ED275
:100A1600008018EF540F2490D43440D4FF30040BD8
:100A2600EF24BFB41A0050032461FFE56760021586
:100A360067056AE56A7002056930070D784FE47547
:100A4600F00112073CEF0206800218437403D20736
:100A56008003E4C207F5668B4F8A508951E4F56737
:100A6600F569F56AE56760077F20120A3180F5753A
:100A760068FFC201C200C202C203C205C206C208A2
:100A86001209FFFF700D3007057F00120A42AF6A98
:100A9600AE6922B4255FC2D5C2041209FFFF24D075
:100AA600B40A00501A75F00A786730D50508B6FF03
:100AB6000106C6A426F620D5047002D20380D924E6
:100AC600CFB41A00EF5004C2E5D204020D2FD201B2
:100AD60080C6D20080C0D20280BCD2D580BAD205F0
:100AE60080B47F20120A312002077401B5670040E6
:100AF600F11209F6FF120A31020A6AD208D20680FA
:100B0600951209F6FB1209F6FA1209F6F94A4B7024
:100B16000679267A0E7BFF20022EE567602A7E0084
:100B26008E8275830012065360060EEE656870F0BD
:100B3600C2D5EBC0E0EAC0E0E9C0E0EE120D8FD00E
:100B4600E0F9D0E0FAD0E0FB12063AFF60AAEBC06B
:100B5600E0EAC0E0E9C0E0120A31D0E02401F9D0B1
:100B6600E03400FAD0E0FBE5680460DCD568D980A3
:100B760087D20280A2120D7260F7E5687001041236
:100B860002AAA968600DE568600914F568120E19D5
:100B9600EF60F3EA30E702F404C3995077EAF425EC
:100BA600680430E701E404F568800D120D7260C137
:100BB600EA056825681202AAEA7865F630E701E4D4
:100BC600256804D5680420050114120D8FE4C0E0E1
:100BD600120E197865E6601320E70714F6120A1953
:100BE600802204F6D0E014C0E07F00120A19E568FE
:100BF6006007120A101568800B300503120A10D020
:100C0600E0020A6AD0E00480C5120D7260A0E568B1
:100C1600041202AA7865EAF6E56820050260010476
:050C26002404120D8FF3
:100C2B0074FF04C0E0120E19120A19E568200502C0
:100C3B006003120A10D0E0B568E87F45120A2378EA
:100C4B0065E67F2B30E7047F2DF404C0E0120A31F8
:100C5B00D0E075F00A84C0F0120A1AD0E0120A1A1A
:100C6B00020A6A791080027908C206C2088008D28B
:100C7B00D5790A8004790AC2D5E568047002F56853
:100C8B00E4FAFDFEFF1209F6FC7B082001131209A2
:100C9B00F6FD7B1030000A1209F6FE1209F6FF7BF7
:100CAB0020EC3382D592D55013C3E43000069FFF5E
:100CBB00E49EFEE42001039DFDE49CFCE4CBF8C222
:100CCB0001EC700CCFCECDCCE824F8F870F3801784
:100CDB00C3EF33FFEE33FEED33FDEC33FCEB33FBB5
:100CEB00994002FB0FD8E9EB300105F8D0E0C4487E
:100CFB00B201C0E00AEC4D4E4F78207B0070C2EA87
:100D0B00B5680040BCC0E0120D91D0F0D0E02001DE
:100D1B0004C4C0E0C4B201C0F0120A1AD0F0D5F07E
:100D2B00EB020A6A12074C0B07530C6E580AD84C8D
:100D3B000AD4420C724F0C7A440C7A490AED430CDC
:100D4B0080550BB1460C0F450B7B470E46500ADC0A
:100D5B002D0AE02E0B032B0AE4230B01200E2F2A66
:100D6B000A9C4800000AFBE568B4FF03756806128D
:100D7B0009F6FC1209F6FD1209F6FE1209F6FF78C8
:100D8B005E0202D9790AA2D5200314300509B910E5
:100D9B00020404B9080104A2D52006025001042064
:100DAB0002689202B567005034C0E07F203003190F
:100DBB007F30A20272067205500F120DE8C202C2FA
:100DCB0006C205C2087F30800F300503E9C0E01270
:100DDB000A31300503D0E0F9D0E0B567CC30051708
:100DEB007F30B9100C120A317F583004077F78809E
:100DFB0003B90803120A313002057F2D020A317F35
:100E0B00202008F87F2B2006F322920280CF7F0050
:100E1B00B407005005245EF8E6FF22286E756C6C53
:100E2B002900D2011209F63001F8C201786730D5DA
:100E3B000108F6020A9C2D504349581209F6240367
:100E4B00B405004001E4900E4193120A22743A1249
:0A0E5B000A22D203756704020C6E30
:10026000E9D2E7C933E833F892D5EDD2E7CD33ECE4
:0702700033FC5002B2D5225D
:10027700EC30E7100FBF000C0EBE00080DBD0004E8
:100287000BEB6014A2D5EB13FCED92E7FD2274FF94
:10029700FCFDFEFF22E480F8A2D574FF13FC7D80ED
:0302A700E480EF01
:1002AA00F920E72824F950037907E4F42402FB181B
:1002BA00DBFDE624FB5014E9600DE4F618E604F6CB
:0F02CA00B40A08E4F6D9F57401F60A22C2D52267
:1002D900ED33EC3392D5FA602AB4FF33EDC2E77BF4
:1002E900FF60067A0279FEE4227A03790720D504B1
:1002F9007A037902224E614E002B494E46002D4960
:100309004E4600E47A08F608DAFC7B00740722E816
:10031900C0E0ECC0E0EDC0E0EEC0E0EFC0E0EA759F
:10032900F010A4CAABF075F04DA42BFBE435F0FC3A
:10033900EA2410FAEB34C5FBEC34D9FCEDC2E7FF33
:1003490075F056A4F42411C5F0F434C58FF0A42A2D
:10035900E5F03BE43CF620E714120504D0E0FFD0B9
:10036900E0FED0E0FDD0E0FC12010C8014F4041290
:100379000504D0E0FFD0E0FED0E0FDD0E0FC1200A3
:1003890003D0E0F8E6FAEDD2E7CD33EC332482FB73
:10039900E4C3CF33CFCE33CECD33CD33DBF37B07BD
:1003A90075F00A846004F6081B0AE5F0F6088FF078
:1003B900740AA4FFACF08EF0740AA42CFEACF050C1
:1003C900010C8DF0740AA42CFDE435F0F608DBDE8F
:0303D90074072284
:1003DC00020295E86480F8E933E83360110460F0B8
:1003EC00ED33EC337009E8FCE9FDEAFEEBFF220487
:1003FC0060DED3EB9FEA9EE99DE8C2E78CF0C2F782
:10040C0095F0400CE8CCF8E9CDF9EACEFAEBCFFB4D
:10041C0012026085D0F05804700320D5B3E8047044
:10042C00075002B2D502029F92D5EC0460F7E4CCDF
:10043C00C0E0C398F8603B94186008400DD0E0FB16
:10044C00020277E4FBFAC9FC8028E830E406E4C930
:10045C00FBE4CAFCE830E305E4C9CACBFCE854076A
:10046C006010F8C3E913F9EA13FAEB13FBEC13FC75
:10047C00D8F130F52FC3E49CFCEF9BFFEE9AFEED18
:10048C0099FDD0E0FBEF4E4D4C701222DB030202C3
:10049C009CEC2CFCEF33FFEE33FEED33FDED30E73F
:1004AC00EB020277EF2BFFEE3AFEED39FDD0E0FBCD
:1004BC0050130BBB000302029FED13FDEE13FEEF76
:0804CC0013FFEC13FC020277A0
:1004D4003F8000004120000042C80000447A000030
:1004E400461C400047C35000497424004B189680B2
:1004F4004CBEBC205A0E1BCA6753C21C749DC5AEA9
:10050400FB60065407601C2323120532EB54386049
:100514000912051E12052D120003ECF8EDF9EEFA8E
:10052400EFCB22EB12052D80F1543803241C9004E8
:10053400D4FE93FC0EEE93FD0EEE930ECE93FF22AB
:0300000002140ADD
:0C140A00787FE4F6D8FD75816D02145166
:10054400E709F608DFFA8046E709F208DFFA803E99
:1005540088828C83E709F0A3DFFA8032E309F60886
:10056400DFFA8078E309F208DFFA807088828C83EE
:10057400E309F0A3DFFA806489828A83E0A3F608A2
:10058400DFFA805889828A83E0A3F208DFFA804C7C
:1005940080D280FA80C680D4806980F28033801053
:1005A40080A680EA809A80A880DA80E280CA8033BC
:1005B40089828A83ECFAE493A3C8C582C8CCC58334
:1005C400CCF0A3C8C582C8CCC583CCDFE9DEE78004
:1005D4000D89828A83E493A3F608DFF9ECFAA9F083
:1005E400EDFB2289828A83ECFAE0A3C8C582C8CCD9
:1005F400C583CCF0A3C8C582C8CCC583CCDFEADEF2
:10060400E880DB89828A83E493A3F208DFF980CC53
:1006140088F0EF60010E4E60C388F0ED2402B4044C
:100624000050B9F582EB2402B4040050AF232345F3
:060634008223900594737F
:10063A00BB010689828A83E0225002E722BBFE02BE
:09064A00E32289828A83E49322F1
:10065300BB010CE58229F582E5833AF583E022505C
:1006630006E92582F8E622BBFE06E92582F8E222A6
:0D067300E58229F582E5833AF583E49322C0
:10068000BB010689828A83F0225002F722BBFE0159
:02069000F32253
:10069200F8BB010DE58229F582E5833AF583E8F09E
:1006A200225006E92582C8F622BBFE05E92582C84A
:0206B200F22232
:1006B400EF8DF0A4A8F0CF8CF0A428CE8DF0A42E5A
:0206C400FE2214
:1006C600BC000BBE0029EF8DF084FFADF022E4CC18
:1006D600F875F008EF2FFFEE33FEEC33FCEE9DECE1
:1006E600984005FCEE9DFE0FD5F0E9E4CEFD22ED27
:1006F600F8F5F0EE8420D21CFEADF075F008EF2F71
:10070600FFED33FD4007985006D5F0F222C398FD61
:050716000FD5F0EA22FE
:0E071B00C3E49FFFE49EFEE49DFDE49CFC22EF
:10072900E8600FEFC333FFEE33FEED33FDEC33FC2E
:03073900D8F122D2
:10073C00FAE6FB0808E6F925F0F618E6CA3AF622BE
:10074C00D083D082F8E4937012740193700DA3A33C
:10075C0093F8740193F5828883E473740293686050
:06076C00EFA3A3A380DF50
:10184300EFB40A07740D12184E740A309811A89950
:10185300B8130CC2983098FDA899C298B811F63005
:0718630099FDC299F59922DD
:10077200E3F5F009E208B5F06D606B80F3E3F5F0A4
:1007820009E608B5F060605E80F387F009E608B517
:10079200F054605280F487F009E208B5F0486046F0
:1007A20080F488828C8387F009E0A3B5F038603644
:1007B20080F488828C8387F009E493A3B5F02760E4
:1007C2002580F388828C83E3F5F009E0A3B5F01667
:1007D200601480F388828C83E3F5F009E493A3B577
:1007E200F004600280F202089D808580E7808E809E
:1007F200D2803C8015806C807E809B80B5808B800F
:10080200A1804F8070803A0208A989828A83ECFA1B
:10081200E493F5F0A3C8C582C8CCC583CCE493A306
:10082200C8C582C8CCC583CCB5F070606E80E18942
:10083200828A83E493F5F0A3E208B5F05E605C80FF
:10084200F289828A83E0F5F0A3E608B5F04D604BA9
:1008520080F389828A83E0F5F0A3E208B5F03C6078
:100862003A80F389828A83E493F5F0A3E608B5F02F
:100872002A602880F2805389828A83ECFAE493F515
:10088200F0A3C8C582C8CCC583CCE0A3C8C582C8C2
:10089200CCC583CCB5F004600280E27FFFB5F002E4
:1008A2000F2240027F012289828A83ECFAE0F5F06E
:1008B200A3C8C582C8CCC583CCE0A3C8C582C8CCB6
:1008C200C583CCB5F0D560D380E389828A83ECFA04
:1008D200E0F5F0A3C8C582C8CCC583CCE493A3C815
:1008E200C582C8CCC583CCB5F0B160AF80E288F0D8
:1008F200ED2402B4040050A3F582EB2402B40400F8
:0B090200509923234582239007EB73DC
:10090D00E709F60870FA8046E709F20870FA803EAA
:10091D0088828C83E709F0A370FA807EE309F608DC
:10092D0070FA8076E309F20870FA806E88828C8303
:10093D00E309F0A370FA806289828A83E0A3F60846
:10094D0070FA805689828A83E0A3F20870FA804A91
:10095D0080D280FA80C680D4806580F2803180108C
:10096D0080A680EA809A80A880DA80E280CA8031F1
:10097D0089828A83ECFAE493A3C8C582C8CCC58367
:10098D00CCF0A3C8C582C8CCC583CC70E9800D89D5
:10099D00828A83E493A3F60870F9ECFAA9F0EDFBD3
:1009AD002289828A83ECFAE0A3C8C582C8CCC583AC
:1009BD00CCF0A3C8C582C8CCC583CC70EA80DD89D4
:1009CD00828A83E493A3F20870F980CE88F0ED2437
:1009DD0002B4040050C4F582EB2402B4040050BAF2
:0909ED00232345822390095D7368
:1014160002137DE493A3F8E493A34003F68001F25C
:1014260008DFF48029E493A3F85407240CC8C333D7
:10143600C4540F4420C8834004F456800146F6DFA6
:10144600E4800B010204081020408090179FE47E80
:10145600019360BCA3FF543F30E509541FFEE4939B
:10146600A360010ECF54C025E060A840B8E493A362
:10147600FAE493A3F8E493A3C8C582C8CAC583CA8D
:10148600F0A3C8C582C8CAC583CADFE9DEE780BE45
:0117CA00001E
:00000001FF
